:100000000C94240F0C946B0F0C946B0F0C946B0FCF
:100010000C946B0F0C946B0F0C946B0F0C946B0F78
:100020000C946B0F0C946B0F0C94851F0C94411F58
:100030000C944A2B0C946B0F0C946B0F0C946B0F5D
:100040000C946B0F0C946B0F0C946B0F0C946B0F48
:100050000C946B0F0C945C200C946B0F0C946B0F36
:100060000C946B0F0C946B0F0C946B0F0C946B0F28
:100070000C946B0F0C946B0F0C946B0F0C946B0F18
:100080000C946B0F0C946B0F0C946B0F0C946B0F08
:100090000C946B0F0C946B0F0C946B0F0C946B0FF8
:1000A0000C946B0F0C946B0F0C946B0F0000000002
:1000B0000000000000000000000000000000000040
:1000C0000000000000000000000000000000000030
:1000D0000000000000000000000000000000000020
:1000E0000000000000000000000000000000808010
:1000F00080404020201008040204081010202040F6
:1001000040808000000000000000000000000000AF
:1001100000000000000000000000000000000000DF
:1001200000000000000000000000000000000000CF
:1001300000000000000000000000000000000000BF
:1001400000000000000000000000000000000000AF
:100150000000000000000000000000000000003F60
:10016000C1010102020404040402020101010000B1
:10017000000000008000004080804000003030001F
:10018000000000010264180412C2CA2488F08080B2
:10019000404040402020202010101010080808087F
:1001A0000404040402020202010101010000000033
:1001B000000000000000000000000000000000003F
:1001C000000000000000000000000000000000002F
:1001D0000000000000000000000000000000E01827
:1001E0000601000000000000000000000080838382
:1001F000404040402021212010101010080808081D
:1002000004040404020202020101010100000000D2
:1002100000000000000000000000000000000000DE
:1002200000000000000000000000000000000000CE
:1002300000000000000000000000000000000000BE
:1002400000000000000000000000000080808080AE
:10025000404040402020202010101010080F0808B7
:1002600004040404020408101020204040414224E9
:1002700098C088888C9C1C1E0E06000000000000A0
:10028000000000000000000000000000000000006E
:10029000000000000000000000000000000000005E
:1002A000000000000000000000000000000000004E
:1002B000000000000000000000000000000000003E
:1002C000000000000000000000000000000000002E
:1002D000000000000000000000000000000000001E
:1002E000000000000000000000000000000000000E
:1002F00000000000000000000000000000000000FE
:1003000000000000000000000000000000000000ED
:1003100000000000000000000000000000000000DD
:1003200000000000000000000000000000000000CD
:1003300000000000000000000000000000000000BD
:1003400000000000000000000000000000000000AD
:10035000000000000000000000000000000000009D
:10036000000000000000000000008080804040206D
:100370002010080402040810102020404080800053
:10038000000000000000000000000000000000006D
:10039000000000000000000000000000000000005D
:1003A000000000000000000000000000000000004D
:1003B000000000000000000000000000000000003D
:1003C000000000000000000000000000000000002D
:1003D00000000000000000000000003FC101010219
:1003E0000204844444428201010100000000000034
:1003F000800000408080400000303000000000019C
:100400000204040808102040808080804040404062
:1004100020202020101010100808080804040404EC
:1004200002020202010101010000000000000000C0
:1004300000000000000000000000000000000000BC
:1004400000000000000000000000000000000000AC
:1004500000000000000000000000E018060100009D
:100460000C03000218190005FE80838340404040C1
:10047000202121201010101008080808040404048A
:100480000408304080800000018698600000000071
:10049000000000000000000000000000000000005C
:1004A000000000000000000000000000000000004C
:1004B000000000000000000000000000000000003C
:1004C000000000000000000080808080404040402C
:1004D0002020202010101010080F08080404040425
:1004E0000202020201010101000000000000000000
:1004F0000000000000000000000000060F0F0703CE
:100500000361F0F8FC600101013C78F8F070000034
:1005100000000000000000000000000000000000DB
:1005200000000000000000000000000000000000CB
:1005300000000000000000000000000000000000BB
:1005400000000000000000000000000000000000AB
:10055000000000000000000000000000000000009B
:10056000000000000000000000000000000000008B
:10057000000000000000000000000000000000007B
:10058000000000000000000000000000000000006B
:10059000000000000000000000000000000000005B
:1005A000000000000000000000000000000000004B
:1005B000000000000000000000000000000000003B
:1005C000000000000000000000000000000000002B
:1005D000000000000000000000000000000000001B
:1005E00000000000000080808040402020100804AF
:1005F000020408101020204040808000000000000D
:1006000000000000000000000000000000000000EA
:1006100000000000000000000000000000000000DA
:1006200000000000000000000000000000000000CA
:1006300000000000000000000000000000000000BA
:1006400000000000000000000000000000000000AA
:10065000000000000000003FC101010202048444C8
:1006600044428201010100000000000080000040BF
:100670008080400000303000000000010264180457
:1006800012C2CA2488F080804040404020202020B0
:1006900010101010080808080404040402020202E2
:1006A0000101010100000000000000000000000046
:1006B000000000000000000000000000000000003A
:1006C000000000000000000000000000000000002A
:1006D000000000000000E018060100000C0300020A
:1006E00018190005FE8083834040404020212120CE
:1006F0001010101008080808040404040202020282
:1007000001010101000000000000000000000000E5
:1007100000000000000000000000000000000000D9
:1007200000000000000000000000000000000000C9
:1007300000000000000000000000000000000000B9
:100740000000000080808080404040402020202029
:1007500010101010080F080804040404020202021A
:100760000101010100000000000000000000000085
:100770000000000000000000000000000000000079
:100780000000000000000000000000000000000069
:100790000000000000000000000000000000000059
:1007A0000000000000000000000000000000000049
:1007B0000000000000000000000000000000000039
:1007C0000000000000000000000000000000000029
:1007D0000000000000000000000000000000000019
:1007E0000000000000000000000000000000000009
:1007F00000000000000000000000000000000000F9
:1008000000000000000000000000000000000000E8
:1008100000000000000000000000000000000000D8
:1008200000000000000000000000000000000000C8
:1008300000000000000000000000000000000000B8
:1008400000000000000000000000000000000000A8
:100850000000000000000000000000000000008018
:10086000804040402020202020180402010204087B
:1008700010202040408080000000000000000000A8
:100880000000000000000000000000000000000068
:100890000000000000000000000000000000000058
:1008A0000000000000000000000000000000000048
:1008B0000000000000000000000000000000000038
:1008C0000000000000000000000000000000000028
:1008D0000000003FC10101020204040404020201FD
:1008E0000000000000000000800000408080400008
:1008F000003030000000000102040408081020400D
:100900008080808040404040202020201010101027
:10091000080808080404040402020202010101019B
:1009200000000000000000000000000000000000C7
:1009300000000000000000000000000000000000B7
:1009400000000000000000000000000000000000A7
:100950000000E01806010000000000000000000098
:10096000008083834040404020212120101010103F
:1009700008080808040404040408304080800000CB
:1009800001869860000000000000000000000000E8
:100990000000000000000000000000000000000057
:1009A0000000000000000000000000000000000047
:1009B0000000000000000000000000000000000037
:1009C0008080808040404040202020201010101067
:1009D000080F080804040404020408101020204032
:1009E0004041422418000000000000000000000008
:1009F00000000000000000000000000000000101F5
:100A000001000000000000000000000000000000E5
:100A100000000000000000000000000000000000D6
:100A200000000000000000000000000000000000C6
:100A300000000000000000000000000000000000B6
:100A400000000000000000000000000000000000A6
:100A50000000000000000000000000000000000096
:100A60000000000000000000000000000000000086
:100A70000000000000000000000000000000000076
:100A80000000000000000000000000000000000066
:100A90000000000000000000000000000000000056
:100AA0000000000000000000000000000000000046
:100AB0000000000000000000000000000000000036
:100AC0000000000000000000000000000000000026
:100AD0000000000000000000000000000000808016
:100AE0004040402010080402010204081020408009
:100AF0008000000000000000000000000000000076
:100B000000000000000000000000000000000000E5
:100B100000000000000000000000000000000000D5
:100B200000000000000000000000000000000000C5
:100B300000000000000000000000000000000000B5
:100B40000000000000000000000000000000003F66
:100B5000C1010102020404040402020101010000B7
:100B600000000000000000800000800000606000C5
:100B700000010204040808101020204080808080BA
:100B80004040404020202020101010100808080885
:100B90000404040402020202010101010000000039
:100BA0000000000000000000000000000000000045
:100BB0000000000000000000000000000000000035
:100BC0000000000000000000000000000000C03035
:100BD0000C0300000000000000000000008086867A
:100BE000404040402122222011111010080808081E
:100BF00004040404040830408080000001869860EA
:100C000000000000000000000000000000000000E4
:100C100000000000000000000000000000000000D4
:100C200000000000000000000000000000000000C4
:100C300000000000000000000000000080808080B4
:100C4000404040402020202010101010080F0808BD
:100C500004040404020408101020204040414224EF
:100C6000180000000000000000000000000000006C
:100C70000000000000000000000001010100000071
:100C80000000000000000000000000000000000064
:100C90000000000000000000000000000000000054
:100CA0000000000000000000000000000000000044
:100CB0000000000000000000000000000000000034
:100CC0000000000000000000000000000000000024
:100CD0000000000000000000000000000000000014
:100CE0000000000000000000000000000000000004
:100CF00000000000000000000000000000000000F4
:100D000000000000000000000000000000000000E3
:100D100000000000000000000000000000000000D3
:100D200000000000000000000000000000000000C3
:100D300000000000000000000000000000000000B3
:100D400000000000000000000000000000000000A3
:100D50000000000000000000000080808080404013
:100D600020100804020408102040808000000000C9
:100D70000000000000000000000000000000000073
:100D80000000000000000000000000000000000063
:100D90000000000000000000000000000000000053
:100DA0000000000000000000000000000000000043
:100DB0000000000000000000000000000000000033
:100DC00000000000000000000000007E820202041B
:100DD00004080808080404020101000000000000E3
:100DE000000000800000800000606000010102043B
:100DF000040808101020204080808080404040403F
:100E000020202020101010100808080804040404F2
:100E100002020202010101010000000000000000C6
:100E200000000000000000000000000000000000C2
:100E300000000000000000000000000000000000B2
:100E400000000000000000000000C0300C030000A3
:100E50000000000000000000008086864040404006
:100E6000212222201111101008080808040404048B
:100E70000408304080800000018698600000000077
:100E80000000000000000000000000000000000062
:100E90000000000000000000000000000000000052
:100EA0000000000000000000000000000000000042
:100EB0000000000000000000808080804040404032
:100EC0002020202010101010080F0808040404042B
:100ED0000204081010202040404142241800000065
:100EE0000000000000000000000000000000000002
:100EF00000000000000001010100000000000000EF
:100F000000000000000000000000000000000000E1
:100F100000000000000000000000000000000000D1
:100F200000000000000000000000000000000000C1
:100F300000000000000000000000000000000000B1
:100F400000000000000000000000000000000000A1
:100F50000000000000000000000000000000000091
:100F60000000000000000000000000000000000081
:100F70000000000000000000000000000000000071
:100F80000000000000000000000000000000000061
:100F90000000000000000000000000000000000051
:100FA0000000000000000000000000000000000041
:100FB0000000000000000000000000000000000031
:100FC0000000000000000000000000000000000021
:100FD0000000000000008080808040402010080455
:100FE0000204081020408080000000000000000083
:100FF00000000000000000000000000000000000F1
:1010000000000000000000000000000000000000E0
:1010100000000000000000000000000000000000D0
:1010200000000000000000000000000000000000C0
:1010300000000000000000000000000000000000B0
:101040000000000000001C34C40404040808080860
:1010500008040402010100000000000080000040BC
:1010600080804000003030000101020204040408C6
:101070000810204080808080404040402020202078
:1010800010101010080808080404040402020202E8
:10109000010101010000000000000000000000004C
:1010A0000000000000000000000000000000000040
:1010B0000000000000000000000000000000000030
:1010C000000000000000E018060100000000000021
:1010D0000000000000808383404040402021212008
:1010E0001010101008080808040404040408304014
:1010F0008080000001869860000000000000000071
:1011000000000000000000000000000000000000DF
:1011100000000000000000000000000000000000CF
:1011200000000000000000000000000000000000BF
:10113000000000008080808040404040202020202F
:1011400010101010080F080804040404020408100A
:101150001020204040414224180000000000000000
:10116000000000000000000000000000000000007F
:10117000000001010100000000000000000000006C
:10118000000000000000000000000000000000005F
:10119000000000000000000000000000000000004F
:1011A000000000000000000000000000000000003F
:1011B000000000000000000000000000000000002F
:1011C000000000000000000000000000000000001F
:1011D000000000000000000000000000000000000F
:1011E00000000000000000000000000000000000FF
:1011F00000000000000000000000000000000000EF
:1012000000000000000000000000000000000000DE
:1012100000000000000000000000000000000000CE
:1012200000000000000000000000000000000000BE
:1012300000000000000000000000000000000000AE
:10124000000000000000000000000000000000801E
:101250008040404020202020201804020102040881
:1012600010202040408080000000000000000000AE
:10127000000000000000000000000000000000006E
:10128000000000000000000000000000000000005E
:10129000000000000000000000000000000000004E
:1012A000000000000000000000000000000000003E
:1012B000000000000000000000000000000000002E
:1012C00000060D31C1010101020202040402020103
:1012D000000000000000000080000040808040000E
:1012E0000030300000000001020404080810204013
:1012F000808080804040404020202020101010102E
:1013000008080808040404040202020201010101A1
:1013100000000000000000000000000000000000CD
:1013200000000000000000000000000000000000BD
:1013300000000000000000000000000000000000AD
:101340000000E0180601000000000000000000009E
:101350000080838340404040202121201010101045
:1013600008080808040404040408304080800000D1
:1013700001869860000000000000000000000000EE
:10138000000000000000000000000000000000005D
:10139000000000000000000000000000000000004D
:1013A000000000000000000000000000000000003D
:1013B000808080804040404020202020101010106D
:1013C000080F080804040404020408101020204038
:1013D000404142241800000000000000000000000E
:1013E00000000000000000000000000000000101FB
:1013F00001000000000000000000000000000000EC
:1014000000000000000000000000000000000000DC
:1014100000000000000000000000000000000000CC
:1014200000000000000000000000000000000000BC
:1014300000000000000000000000000000000000AC
:10144000000000000000000000000000000000009C
:10145000000000000000000000000000000000008C
:10146000000000000000000000000000000000007C
:10147000000000000000000000000000000000006C
:101480000000000000000000000000004C001A00F6
:1014900015001C000C00130030002B001600090082
:1014A0000B000E0033002002E1001D0006000500C5
:1014B000100037000151E000E20017001800120090
:1014C00050005100140008000A000D000F002F000A
:1014D0002A00040007001900110036003400E10062
:1014E00031001B0000002C00000038004F000251AA
:1014F00002510000000000005200A80029001F0057
:1015000021002300250027002E00E3000100005CDD
:1015100001000100010001000100C45C01000100A4
:10152000010001000100010001002200240026004A
:101530002A0001001E0020000100010001002D0012
:10154000280001000100010001000100010001006C
:10155000C35C010000000100000001000100010067
:1015600001000000000000000100010001003B003C
:101570003D003F0041004300450001000100010023
:101580000100010001000100010001000100010053
:10159000010001000100010001003E004000420086
:1015A000010001003A003C0001000100010044007C
:1015B0000100010001000100010001000100010023
:1015C0000100010000000100000001000100010015
:1015D00001000000000000000100010000DA0281AB
:1015E00078D9F1DB20A4A62EAF00A0C000A1C800CE
:1015F000AED580A81FD300408D14200000047F3F8B
:101600001F643214643214783C1E1E140A05202014
:1016100020202020200043415053000001010101FF
:10162000010101010102020202020202020203039D
:10163000030303030303040404040404040505056D
:10164000050506060606060707070707080808082F
:10165000090909090A0A0A0B0B0B0C0C0C0D0D0DDC
:101660000E0E0E0F0F0F1010111111121213131472
:1016700014151516161717181819191A1A1B1B1CEA
:101680001D1D1E1E1F202021222223242425262644
:10169000272829292A2B2C2D2D2E2F303132323379
:1016A0003435363738393A3B3C3D3E3F4041424382
:1016B0004445464748494A4C4D4E4F505153545566
:1016C0005658595A5B5D5E5F616264656668696B16
:1016D0006C6D6F7072737577787A7B7D7E80828394
:1016E0008587888A8C8E8F91939596989A9C9EA0D8
:1016F000A2A3A5A7A9ABADAFB1B3B5B7BABCBEC0E5
:10170000C2C4C6C9CBCDCFD1D4D6D8DBDDDFE2E4AD
:10171000E7E9EBEEF0F3F5F8FAFDFFFFAA7F55409D
:101720002223252628292A2C2D2F303233353638EE
:101730003A3B3D3E4042434547494A4C4E50515347
:101740005557595A5C5E6062646668696B6D6F716B
:10175000737577797B7D7F81838587898A8C8E906D
:10176000929496989A9C9E9FA1A3A5A7A8AAACAE76
:10177000AFB1B3B4B6B8B9BBBCBEBFC1C2C3C5C6B6
:10178000C7C9CACBCCCDCED0D1D2D2D3D4D5D6D75F
:10179000D7D8D9D9DADADBDBDBDCDCDCDCDCDDDD9D
:1017A000DDDDDCDCDCDCDCDBDBDBDADAD9D9D8D78D
:1017B000D7D6D5D4D3D2D2D1D0CECDCCCBCAC9C72F
:1017C000C6C5C3C2C1BFBEBCBBB9B8B6B4B3B1AF66
:1017D000AEACAAA8A7A5A3A19F9E9C9A9896949206
:1017E000908E8C8A89878583817F7D7B79777573DD
:1017F000716F6D6B6968666462605E5C5A595755BB
:101800005351504E4C4A4947454342403E3D3B3A76
:101810003836353332302F2D2C2A292826252322FD
:1018200000AF00AE05010980A101850319012AB7A7
:1018300000150126B700950175108100C0050C093F
:1018400001A101850419012AA002150126A0029513
:101850000175108100C005010906A101050719E005
:1018600029E7150025019508750181029501750884
:1018700081010507190029FF150026FF009506754F
:101880000881000508190129059505750191029542
:101890000175039101C009023B00020100A0FA0991
:1018A000040000010301010009211101000122408F
:1018B000000705810308000A090401000103000074
:1018C00000092111010001223200070582032000D6
:1018D0000A1201000200000008EDFE0000010001F4
:1018E0000200011003560065007200640061006E82
:1018F00000740000000C034B00720065006D006571
:101900000000000403090407087F0807003E5B4F3E
:101910005B3E003E6B4F6B3E001C3E7C3E1C001845
:101920003C7E3C18001C577D571C001C5E7F5E1CD3
:101930000000183C180000FFE7C3E7FF0000182470
:10194000180000FFE7DBE7FF0030483A060E0026EC
:101950002979292600407F05050700407F05253F9E
:10196000005A3CE73C5A007F3E1C1C0800081C1C27
:101970003E7F0014227F2214005F5F005F5F00063D
:10198000097F017F00006689956A00606060606081
:101990000094A2FFA2940008047E04080010207E98
:1019A00020100008082A1C0800081C2A0808001E2D
:1019B00010101010000C1E0C1E0C0030383E383079
:1019C00000060E3E0E060000000000000000005F52
:1019D000000000000700070000147F147F1400249B
:1019E0002A7F2A12002313086462003649562050C9
:1019F00000000807030000001C22410000004122F3
:101A00001C00002A1C7F1C2A0008083E0808000051
:101A100080703000000808080808000000606000BE
:101A2000002010080402003E5149453E0000427F5C
:101A30004000007249494946002141494D33001890
:101A400014127F10002745454539003C4A49493169
:101A500000412111090700364949493600464949E4
:101A6000291E0000001400000000403400000000A7
:101A70000814224100141414141400004122140804
:101A8000000201590906003E415D594E007C1211C9
:101A9000127C007F49494936003E41414122007F86
:101AA0004141413E007F49494941007F09090901FF
:101AB000003E41415173007F0808087F0000417FCC
:101AC0004100002040413F01007F08142241007F77
:101AD00040404040007F021C027F007F0408107FCE
:101AE000003E4141413E007F09090906003E415147
:101AF000215E007F09192946002649494932000321
:101B0000017F0103003F4040403F001F2040201F55
:101B1000003F4038403F006314081463000304781A
:101B20000403006159494D4300007F4141410002D7
:101B30000408102000004141417F0004020102041A
:101B4000004040404040000003070800002054547B
:101B50007840007F28444438003844444428003802
:101B60004444287F0038545454180000087E090269
:101B70000018A4A49C78007F080404780000447D29
:101B80004000002040403D00007F1028440000003D
:101B9000417F4000007C04780478007C08040478CD
:101BA00000384444443800FC182424180018242425
:101BB00018FC007C08040408004854545424000411
:101BC000043F4424003C4040207C001C2040201C5A
:101BD000003C4030403C004428102844004C909089
:101BE000907C004464544C440000083641000000DE
:101BF00000770000000041360800000201020402E4
:101C0000003C2623263C000000000000004040402D
:101C1000F0F8F8FF38FFF8F83FF8F8FF38FFF8F869
:101C2000F040404000000000000080C0C0C08000C4
:101C300000C0C08000000080C0C000C0C0000080A4
:101C4000C0C00000000000C0C0C0C0C000C0C000D4
:101C50000000000000000000000000000000000084
:101C60000000000000000000000000000000000074
:101C70000000000000000000000000000000000064
:101C8000000000000000C0F0F8FC3E1E060100004D
:101C9000007F4141417F007F4141417F000080C082
:101CA000E07E5B4F5BFEC00000C000DCD7DEDEDE06
:101CB000D7DC00C0000000000000000000000000B1
:101CC0000000000000000000000000000049494939
:101CD000FFFFFFFFE0DFBFBF00BFBFDFE0FFFFFF91
:101CE000FF49494900000000001F3F6060E0BF1F3E
:101CF000007F7F071E381E077F7F007F7F0E1F3B00
:101D0000716000000000007F7F0C0C0C007E7E00E4
:101D10007F7E0303007F7E03037E7E03037F7E00BE
:101D20000F3E703C063C703E0F00327B49493F7EBF
:101D3000007F7E0303001E3F69696F2600000000DC
:101D4000000000000000030F1F3F3C78706000009F
:101D5000007F4141417F007F4141417F00307B7FD7
:101D60007830202030787F3B0003000F7F0F0F0F6B
:101D70007F0F0003000000000000000000000000D2
:101D80000000000000000000000000000001010150
:101D9000070F0F7F0F7F0F0F7E0F0F7F0F7F0F0F2C
:101DA0000701010100000000000000000000010127
:101DB0000000000000000000000000000000000023
:101DC0000000000000000000000000000000000013
:101DD0000000000000000000000000000000000003
:101DE00000000000000000000000000000000000F3
:101DF00000000000000000000000000000000000E3
:101E000000000000000000000000000000000000D2
:101E100000000000000000000000000000000000C2
:101E200000000000000000000000000000000000B2
:101E300000000000000000000000000000000000A2
:101E4000000000000000000011241FBECFEFDAE008
:101E5000DEBFCDBF04B603FE27C08091F30490918E
:101E6000F404A091F504B091F6048730904BA7409C
:101E7000B04BD1F41092F3041092F4041092F504D4
:101E80001092F60414BE84B7877F84BF0FB6F8940F
:101E9000A895809160008861809360001092600036
:101EA0000FBEE0E0F8E3099511E0A0E0B1E0EAED53
:101EB000FEE602C005900D92A63AB107D9F724E0DC
:101EC000A6EAB1E001C01D92A33FB207E1F70E946C
:101ED000712B0C9447370C940000CF93DF93409103
:101EE000F1045091F204415F52409A0124583D4F51
:101EF00021303240C0F020E032E0241B350B6091ED
:101F0000EF027091F002FC01CA01240F351FC1E0FD
:101F1000D0E08217930750F07093F0026093EF02C5
:101F2000DF91CF9108952CE732E0E9CF4491DC01B5
:101F3000AF50BD4F5C91451781F04C93AC01A5E0CB
:101F400056954795AA95E1F7DE0102C0AA0FBB1F7F
:101F50004A95E2F7AD016A2B752B01963196D9CFE0
:101F6000E8EDF0E080818E7F80831092E200109295
:101F7000DA001092E100A0EEB0E08C9181608C93C9
:101F800080818F77808319BCA7EDB0E08C918E7F24
:101F90008C9380818F7E80831092CE020895209151
:101FA000E4003091E50095E6A9012091EC00822F34
:101FB000817020FF06C08091E80080FF06C080E0AD
:101FC00008952091E80022FD1AC08091DB02882349
:101FD00089F0853089F08091EB0085FD0FC020915C
:101FE000E4003091E50042175307F9F29150E1F611
:101FF00084E0089582E0089583E0089581E00895E3
:10200000EF92FF920F931F93CF937C018B010E945D
:10201000CF0FC82F811117C08091E80085FD0BC03C
:102020008091E8008E778093E8000E94CF0F88238C
:1020300099F3C82F08C0F70181917F018093F100C7
:102040000150110949F78C2FCF911F910F91FF90EB
:10205000EF9008958091DD0287FF13C08091E80022
:1020600082FF06C08091E8008B778093E80004C06F
:102070008091DB028111F2CF08958091DB028823E9
:10208000D9F38091E80080FFF8CF8091E8008E7747
:10209000ECCF982F9093E900242F762F50E08917EA
:1020A00031F07091EC002091ED005091F00021FD95
:1020B00007C09F5F973071F78093E90081E0089532
:1020C0003091EB003E7F3093EB003091ED003D7F8F
:1020D0003093ED003091EB0031603093EB00709362
:1020E000EC002093ED005093F0002091EE0027FDCE
:1020F000E0CF80E00895CF92DF92EF92FF920F93AE
:102100001F93CF93DF93C8EDD0E088818F7E8883C3
:10211000E7EDF0E080818160808384E082BF81E030
:102120008093CE0288818E7F888302EE10E0F801D2
:1021300010821092DA0081EEC82ED12CF6011082A6
:1021400088818F77888388818068888388818F7D64
:10215000888319BC1092DB021092DC021092DA0222
:102160001092D90290EEE92EF12CF70180818B7F3D
:10217000808388818160888342E060E080E00E9403
:102180004910F60180818E7F8083F8018081816013
:102190008083808188608083F70180818E7F808347
:1021A000888180618883DF91CF911F910F91FF908B
:1021B000EF90DF90CF900895FC018091E302909121
:1021C000E40286179707A0F06115710529F4909134
:1021D000E8009E779093E80090E06115710551F456
:1021E000911108C08091E80082FF34C080E008951A
:1021F000BC01F2CF8091DB028823C1F18530C1F1AF
:102200008091E80083FD30C08091E80082FDEACF34
:102210008091E80080FFE1CF8091F3002091F200EF
:10222000382F6115710519F02830310558F091E00B
:102230002830310509F090E02091E8002E772093B6
:10224000E800CBCF81918093F100615071092F5F3D
:102250003F4FE7CF8091DB02882341F0853041F08A
:102260008091E80083FFBECF81E0089582E0089569
:1022700083E00895089508958091D00208952FB7BE
:10228000F8946091C7027091C8028091C902909140
:10229000CA022FBF08959C01FC0132969FEF80E097
:1022A0004191461751F09F3F19F4411101C0982FF9
:1022B0008F5F8630A9F79F3F09F40895290F311DDC
:1022C00097FD3A95F901628308952091C4023091F7
:1022D000C5022817390771F09093C5028093C40294
:1022E000E091C202F091C302309721F00084F185A1
:1022F000E02D099408952091C0023091C102281761
:10230000390771F09093C1028093C002E091C2023C
:10231000F091C302309721F00680F781E02D0994F7
:102320000895E091C202F091C302309721F001902C
:10233000F081E02D099480E00895FA01811101C037
:10234000FB0109948091B502982F9E7F29F481703A
:1023500082608093B50208958A34E8F381708864BE
:10236000F8CFAF92BF92DF92EF92FF920F931F933D
:10237000CF93DF93082F162FE901E42FF0E0E55EFD
:10238000F94E611110C0E4915E2F4E2F4983E8830E
:102390005A83DF91CF911F910F91FF90EF90DF90C3
:1023A000BF90AF900895E62EF12C4491D42EE42FE7
:1023B000F0E026E0829FC00111242FEF30E0B90148
:1023C0000E946A31802F90E0880F991F55E5569F33
:1023D000D001579FB00D11248A1B9B0B982F990F8A
:1023E000890F5901AE18BF08AE9ED001AF9EB00D47
:1023F000BE9EB00D11245B2F189F80011124012F68
:1024000011275901A01AB10AAE9E8001AF9E100D8E
:10241000BE9E100D11245901A81AB108AE9CC0012E
:10242000AF9C900DBE9C900D1124892F9927281BDD
:10243000390B2E9FC0012F9F900D3E9F900D1124B0
:10244000E92F62307105A1F050F46115710509F4AE
:102450009DCF6130710581F0EB2F512F97CF643004
:10246000710569F080F06630710509F48FCFF4CF03
:10247000E42F4B2F592F8ACFE42F412F87CFEB2FFB
:10248000542F492F83CF4B2F5D2DE12F7FCF80E03D
:102490000895F894E82FE295EF70F0E031A1282F2D
:1024A0002F7081E090E001C0880F2A95EAF7982FFD
:1024B0009095932391A392A1892B82A37894089558
:1024C0009091200292FF06C0282F28712830F9F43D
:1024D000877F846093FF06C0282F28712831F1F48C
:1024E000877E84612091210220FF06C0382F387139
:1024F0003830D9F4877F816021FF06C0282F2871EA
:102500002831D1F4877E816194FD877E0895282F3C
:1025100024712430F9F68B7F8860DCCF282F24715A
:10252000243101F78B7E8861DDCF382F3171313056
:1025300019F78E7F8860E0CF282F2171213121F794
:102540008E7E8861E1CFCF93DF93EC0182389105D5
:10255000A9F1D8F58133910509F496C048F589327F
:10256000910509F48AC08A9709F495C0C11522E53E
:10257000D20708F0B6C0C11531E5D30708F026C16F
:10258000C83ED10508F09CC0C03ED10560F5C83AF0
:10259000D10508F087C0C53AD10508F0EFC0C130B9
:1025A000D10509F12097F9F0C430D105E0F440C01D
:1025B0008533910509F45AC0C997C1F6809120026C
:1025C000837089F0C0EED0E00EC0833E910599F192
:1025D00070F4803E910501F1823E910539F68091BB
:1025E000200282FD21C0CE01DF91CF910895863E69
:1025F000910561F1873E910571F1843E910509F0E5
:10260000B5CF8091210281FFEECF80912002C7EEED
:10261000D0E084FD0DC0E7CF8091200280FD07C18E
:102620009091210290FFDFCFC3EED0E084FFDBCF9B
:10263000D0E0C0E0D8CF8091200282FDFBC0909115
:10264000210290FDBFCF84FFCECFF2CF8091200238
:1026500083FDDDCFC8CF8091200283FDEEC0909135
:10266000210291FFF0CFC4EED0E0BDCF80912002D7
:1026700085FFB9CFC9E2D0E0B6CF8091200285FFB7
:10268000B2CFC5E3D0E0AFCF8091200286FFABCFC1
:10269000CAE2D0E0A8CF8091200286FFA4CFC1E398
:1026A000D0E0A1CFCF3BD10518F6C85AD0E0CC0F6F
:1026B000DD1FC45DDE4F0990D881C02DD46493CF57
:1026C000C11540E5D40708F064C0C11580E4D807FF
:1026D00008F05CC0CE019A9581159F4108F483CF24
:1026E000A7CFC11536E5D30718F5C11545E5D407C1
:1026F00008F084C0C11584E5D80708F07AC09C2F83
:10270000969596959E0123703327C115D34508F4FD
:1027100062C0C1E0D0E002C0CC0FDD1F2A95E2F715
:1027200030E2939FC0011124C82BD92BDA685BCF0C
:10273000C1158AE5D80778F4C11599E5D90708F0DD
:1027400068C0C11528E5D20708F472CFDC2FCC276A
:10275000C06FD06A48CFCE0190568115904208F0E4
:1027600067CF8D2F8F710E94601290E0982F88277D
:1027700088279F719C012C2BE90149C0C55AD0E0E4
:10278000C75DDE4FC881D0E0D0642DCFDF70D06A46
:102790002ACFCE01E4E096958795EA95E1F783701C
:1027A0002C2F26952695237040E2249F900111241A
:1027B000382B8C2F8370C1E0D0E002C0CC0FDD1F1E
:1027C0008A95E2F7C22BD32BDC680DCFDC2FCC2708
:1027D000C16FD06A08CFC1E0D0E002C0CC0FDD1FCE
:1027E0002A95E2F720E2929FC0011124C82BD92B31
:1027F000EBCFDC2FCC27C46FD06AF5CE8C2F0E9494
:102800006012C82FD0E0DC2FCC27CC27DF71D0623C
:10281000EACE8C2F8F700E94601234E0D695C79557
:102820003A95E1F7CF709C2FEC01D069DCCEC9E37B
:10283000D0E0D9CEC2EED0E0D6CEC6EED0E0D3CE38
:10284000809112028111109212020895809111025A
:1028500090911002892B90910F02892B8093A801EF
:1028600090911202992391F0892B8093A80120E086
:102870008AEA91E0FC013191CF0131112F5FF1E043
:10288000803B9F07B9F721110E942014E091C202FA
:10289000F091C302309731F00280F381E02D88EA95
:1028A00091E00994089580910D029091DC019813B4
:1028B00001C008958F5F8770FACFAF92BF92CF9219
:1028C000DF92EF92FF920F931F93CF93DF93C0900D
:1028D0001C02D0901D02E0901E02F0901F02409159
:1028E0001302509114026091150270911602C42ACD
:1028F000D52AE62AF72ACFE1D0E0082F10E027E01A
:10290000929F000D111D112498E3A92EBC2ED70112
:10291000C6010C2E04C0B695A795979587950A9485
:10292000D2F780FD0FC0219788F7B12C8B2DDF9156
:10293000CF911F910F91FF90EF90DF90CF90BF90BC
:10294000AF900895AC9EF001AD9EF00D1124E00F04
:10295000F11FEE0FFF1FE457FB4E859194910E94EB
:10296000A312019701F3E2CFCF93DF93EC010E9412
:102970005D14EC2FF0E097E0D99FE00DF11D1124DC
:1029800098E3899FE00DF11D1124EE0FFF1FE4571E
:10299000FB4E85919491DF91CF910C94A31227E087
:1029A000929F800D1124982F977086958695869515
:1029B00025E0829FF0011124ED54FE4F50E040E0ED
:1029C00080E0219130E0092E02C0369527950A94C7
:1029D000E2F721703327042E01C0220F0A94EAF790
:1029E000822B4F5F5F4F4530510559F7089527E01F
:1029F000929F800D1124982F977041E001C0440FE1
:102A00009A95EAF786958695869595E0899FF001D7
:102A10001124ED54FE4F90E080E070E05191DF0111
:102A200011979B01082E02C0369527950A94E2F76C
:102A3000217021952527242325272C930196853065
:102A4000910561F70895FC01808191810E94B41481
:102A5000292F2F7092959F7092509E3078F4E92F15
:102A6000F0E0E75BF84C0C94ED31803F19F020F476
:102A7000883E20F481E00895843FE1F380E00895EA
:102A8000883EC0F3813FD1F7F5CF822F869586959A
:102A90008695089590E080E00E947B1190E080E0B0
:102AA0000E9465111092100210920F020C942614CD
:102AB00060931C0270931D0280931E0290931F026C
:102AC0000C944A150F931F9341E050E060E070E0D2
:102AD00004C0440F551F661F771F8A95D2F7CB019C
:102AE000BA01609570958095909500911C021091A7
:102AF0001D0220911E0230911F0260237123822348
:102B000093231F910F910C94581590910E0280956C
:102B1000892380930E02282F277039F4282F082E3E
:102B2000000C330B9217130621F49091210292FFAF
:102B300007C08595859585950E94621510920E02B5
:102B400008950F931F9341E050E060E070E004C0EF
:102B5000440F551F661F771F8A95D2F780911C027C
:102B600090911D02A0911E02B0911F028A019B014B
:102B7000082B192B2A2B3B2BC901B8011F910F9150
:102B80000C945815609313027093140280931502ED
:102B9000909316020C944A15882341F080959091E9
:102BA00011028923809311020C942614089588231E
:102BB00039F090911102982B909311020C942614E5
:102BC00008958823B1F19CEF980F913A70F4EAEAE6
:102BD000F1E09191891303C0DF0111971C9241E04C
:102BE000E03BF407B1F70C94261490E2980F98306C
:102BF00088F4877021E030E0A90102C0440F551F1E
:102C00008A95E2F7CA0180959091110289238093F9
:102C10001102E9CF9BE5980F933020F490E080E01B
:102C20000C947B11885A873120F490E080E00C945A
:102C300065110895CF93C82F882309F44EC08CEFF7
:102C40008C0F813AF8F4EAEAF1E080EB91E0DF01E1
:102C50002D91C21759F08A179B07D1F76C2F88EA7C
:102C600091E00E944B11CF910C9426142191C21334
:102C700003C0DF0111971C928E179F07B9F70E94BE
:102C80002614ECCF80E28C0F883068F4C77021E006
:102C900030E001C0220FCA95EAF780911102822B21
:102CA00080931102E0CFEBE5EC0FE33040F4F0E06D
:102CB000E75DFE4F808190E0CF910C947B11C85A64
:102CC000C73158F4EC2FF0E0EE0FFF1FE45DFE4F2C
:102CD00080819181CF910C946511CF91089580915D
:102CE00040028531F0F48091B10190E0019665E0F9
:102CF00070E00E9498318093B10124E030E0281BFD
:102D0000390B4CE752E0249FC001259F900D349F62
:102D1000900D1124805E974F0C946D0F84EA95E01E
:102D2000FBCF8832D8F38091B00190E0019681709A
:102D300099278093B00121E030E0281B390B4CE744
:102D400052E0249FC001259F900D349F900D1124C7
:102D500084559F4FE1CFCF92DF92EF92FF920F9376
:102D60001F93CF93DF936C017B0164E670E088E7EB
:102D70000E946930EC0197FD12C010E000E0F601FE
:102D8000E00FF11F849164E670E00E94E330EC01F3
:102D9000892B29F40F5F1F4F0E151F0581F70E9425
:102DA0006631CE01DF91CF911F910F91FF90EF908F
:102DB000DF90CF9008958091BE029091BF02911153
:102DC00003C091E089270895882369F062E070E0EC
:102DD00082E298E10E94AB16892B19F08091BE0225
:102DE00008951092BE028091BE02EBCFCF93C091A6
:102DF000BE028091BF028823D1F00E943F1160542F
:102E00007B428E4F9F4F6093BA027093BB028093B8
:102E1000BC029093BD02C11108C062E070E080E284
:102E200098E10E94AB16892B29F0C091BE028C2F2D
:102E3000CF91089581E08093BE02F7CF10921102E6
:102E4000EAEAF1E086E0DF011D928A95E9F70C9449
:102E50004A151F93CF93DF93CDB7DEB7AA970FB66E
:102E6000F894DEBF0FBECDBF8DED92E02091F10052
:102E7000FC012193CF01F2E0853E9F07B9F78091D5
:102E8000DE02833009F46FC0B8F4813009F446C023
:102E9000823009F4B0C08091E80083FF7BC280914A
:102EA000DD029091DE029A3008F074C2E92FF0E062
:102EB000E95AF84C0C94ED318A3009F48BC08B3010
:102EC00009F46EC0893039F78091DD02813219F73B
:102ED0008091E1029091E2020297E8F68091E80089
:102EE000877F8093E8008091E80082FF37C090914F
:102EF000F3008091F200029729F48091F1008B7F1A
:102F0000813021F48091F1008093D0028091E8001B
:102F10008B778093E8000E942A10BDCF8091DD025C
:102F2000813A09F0B8CF8091E800877F8093E8006C
:102F30008091E1029091E202892B61F468E081EDD9
:102F400092E070E00E94DC108091E8008B77809323
:102F5000E800A1CF60E090E080E0F3CF8091DB0259
:102F60008111C1CF98CF8091DD02813A09F093CFD2
:102F70008091E1029091E202892B09F08CCF80913F
:102F8000E800877F8093E8008091E80080FFFCCF15
:102F900080911F018093F1008091E8008E77B9CF76
:102FA0008091DD02813209F076CF8091E10290912B
:102FB000E202892B09F06FCF8091E800877F809330
:102FC000E8000E942A108091DF0280931F010E9476
:102FD0001E1761CF8091DD02813209F05CCF8091B4
:102FE000E800877F8093E8000E942A108091E00229
:102FF0008093CF0250CF8091DD02813A09F04BCF10
:103000008091E800877F8093E8008091E80080FF4E
:10301000FCCF8091CF02BECF803899F0823809F082
:10302000B9C18091E1028F70873008F0B3C18093FD
:10303000E9008091EB0085FB882780F91092E90078
:1030400006C08091D9029091DA029111826090912C
:10305000E800977F9093E8008093F1001092F100D0
:103060008091E8008E7792C1882309F480C1823074
:1030700009F090C18091DF02811183C18091E1024A
:103080008F702FEF280F263008F084C18093E9005D
:103090002091EB0020FF75C1933031F48091EB005B
:1030A00080628093EB006DC19091EB0090619093F2
:1030B000EB0021E030E001C0220F8A95EAF720936F
:1030C000EA001092EA008091EB008860EACF81115B
:1030D00061C11091DF021F778091E3008078812B1E
:1030E0008093E3008091E800877F8093E8000E944E
:1030F0002A108091E80080FFFCCF8091E300806877
:103100008093E30082E0111183E08093DB0242C1EF
:103110008058823008F03EC18091DF029091E00239
:103120008C3D23E09207A1F583E08A838AE28983BC
:103130004FB7F894DE01139620E03EE051E2E32F12
:10314000F0E050935700E49120FF03C0E295EF7048
:103150003F5FEF708E2F90E0EA30C0F0C7968D93FE
:103160009D932F5F243159F74FBF8091E800877FEF
:103170008093E8006AE270E0CE0101960E94DC10C4
:103180008091E8008B778093E80004C1C096E7CF78
:103190004091E1025091E202292F3327233031057B
:1031A00009F444C078F52130310509F46FC08BE390
:1031B00090E0E6E9F8E12230310509F0EBC020911A
:1031C000E800277F2093E8002091E3023091E40299
:1031D0008217930708F49C0140E02115310509F09E
:1031E00064C0411162C08091E80082FDC9CF809126
:1031F000DB02882329F2853019F28091E80083FFF1
:10320000F2CFBECF21323105A9F12232310509F0CA
:10321000C1C04115510509F443C04130510509F0C1
:10322000B9C082E390E0E4E2F8E1C9CF99278130A8
:103230009105C1F0009759F0029709F0ABC0E3EE99
:10324000F8E1E4918E2F90E0E3EEF8E107C0E3E0CF
:10325000F9E1E4918E2F90E0E3E0F9E1009709F4C1
:1032600099C0ADCFE5EFF8E1E4918E2F90E0E5EF66
:10327000F8E1F4CF4115510571F04130510509F0E5
:1032800089C089E090E0E1ECF8E199CF82E190E03B
:10329000E1EDF8E194CF89E090E0E8EAF8E18FCF42
:1032A00080E490E0E6E5F8E18ACF8091DB028823B4
:1032B00009F466CF853009F463CF8091E80083FD7F
:1032C0005FCF8091E80082FD8ECF8091E80080FF83
:1032D00084CF9091F3008091F2002115310519F00F
:1032E0008830910550F041E0089709F040E0809166
:1032F000E8008E778093E80070CF44914093F1000E
:103300003196215031090196E8CF803809F042C04A
:103310008091E800877F8093E8008091DC028093B1
:10332000F1009ECE811136C01091DF02123090F56F
:103330008091E800877F8093E8001093DC020E9470
:103340002A10112311F084E005C08091E30087FD6D
:10335000FACF81E08093DB0242E061EC81E00E94E1
:10336000491042E261EC82E00E94491013C0809152
:10337000DF02813079F481E0933009F080E08093BE
:10338000DA021092E9008091E800877F8093E800DC
:103390000E942A108091E80083FF0AC08091E80013
:1033A000877F8093E8008091EB0080628093EB0040
:1033B000AA960FB6F894DEBF0FBECDBFDF91CF91B6
:1033C0001F910895CF93DF93C091F104D091F2043F
:1033D0008A30C1F42091E802CE01815F9240622FD1
:1033E00070E00E946A31281B822F66E00E947E31C5
:1033F000C82FC15018F4DF91CF91089580E20E9448
:10340000E219F7CF8D30E9F4C15FD2402091E80294
:10341000622F70E0CE010E946A31281B822F9E012C
:10342000280F311D2115324018F080E0D0E0C0E0B7
:10343000C80FD11DCF50DD4FD093F204C093F104DB
:10344000DACF96E0FE01A9EEB2E001900D929A95D6
:10345000E1F7803E08F458C086E0FE0111928A959B
:10346000E9F7C091F104D091F20446E050E0BE01CA
:1034700089EE92E00E9471329E01215F3240892BD9
:1034800041F1C90145E0969587954A95E1F741E0FC
:1034900050E0BA0102C0660F771F8A95E2F7CB01B0
:1034A0006091EF027091F002862B972BB9016B5F50
:1034B0007F4FE5E076956795EA95E1F702C0440F06
:1034C000551F6A95E2F7842B952B9093F002809319
:1034D000EF022A5F3F4F4091E802642F70E0C9017C
:1034E0000E946A31481B463010F4240F311D21150B
:1034F00072E0370710F030E020E02F503D4F30935E
:10350000F2042093F10477CFF6E08F9FB0011124ED
:10351000695F764E46E050E0CE010E945B32A1CF5B
:103520009091DB02943031F58093CB027093CD0201
:103530006093CC0282E08093E9008FEF9091E800E5
:10354000815095FD06C095ED9A95F1F70000811127
:10355000F5CF8091E80085FF0DC050E040E063E0CA
:1035600070E08BEC92E00E9400108091E8008E7772
:103570008093E8000895BC0184E00C94901ABC018B
:1035800083E00C94901ACF93DF93EC0181E0809359
:10359000E9008FEF9091E800815095FD06C095ED10
:1035A0009A95F1F700008111F5CF8091E80085FF31
:1035B00014C050E040E068E070E0CE010E940010CE
:1035C0008091E8008E778093E80088E0FE01A1ED0D
:1035D000B2E001900D928A95E1F7DF91CF910895C5
:1035E00081E08093E00080E28093D8001092C900CF
:1035F0008FE19EE40197F1F700C0000087E090EBB7
:10360000DC018093F3049093F404A093F504B09349
:10361000F60488E19CE00FB6F894A89580936000CA
:103620000FBE90936000FFCF8091B50280FD0AC06D
:10363000E2E8F2E0118210821282339652E0E53B1A
:10364000F507C1F7229A35B13B7F25B124604FB70A
:10365000F89482E892E0FC015191CF0168E025B92D
:10366000000000C057FF35B9550F000000C000C072
:1036700000C035B900C06A9591F7F2E0853B9F071D
:1036800051F74FBF8FE594E00197F1F700C00000BC
:103690000895EF92FF920F931F93CF93DF938C01C6
:1036A000C2E8D2E0F12CE12CF80194816091B702DC
:1036B0008091B602F8E0EF16F104FCF49923F9F0DA
:1036C0009E014091B8020E94B1112FEFE21AF20A56
:1036D000239681E1E816F10439F70E94141BF801E2
:1036E000848190E00196817099278483DF91CF9146
:1036F0001F910F91FF90EF900895992309F39E0178
:1037000040E0E1CF8F929F92AF92BF92CF92DF9233
:10371000EF92FF920F931F93CF93DF93EC014C81B5
:10372000042F10E09801D8010E94FB319B01AC01ED
:103730000E9411324B015C01E0E2F0E0E01BF10B72
:10374000A5E5B0E0AC019B010E9411326B017C0148
:103750009F01DF010E94F3319B01AC010E941C32EA
:103760009B01AC01280D391D4A1D5B1DC701B60127
:103770000E94AC31F22E822F90E039E23F15D8F151
:1037800043E0249F9001112435952795122F109521
:1037900092E8C92E92E0D92E00E085E5E82EEF18D8
:1037A0008E2D01FD8F2D9601412F6091B7020E9451
:1037B000B1110F5F53E0C50ED11C013189F70E9492
:1037C000141B9C8181E0992319F0903219F48FEF3A
:1037D00080931E0180911E01890F8C83DF91CF9110
:1037E0001F910F91FF90EF90DF90CF90BF90AF901F
:1037F0009F908F90089525E530E0A901481B590B53
:10380000CA019A01220F331F280F391F37FFBCCF7F
:103810002F5F3F4FB9CF0F931F93CF93DF93C2E832
:10382000D2E0FE01118210821282339682E0E53BE3
:10383000F807C1F710E000E080918002082E000C2C
:10384000990B081719078CF180911D01082E000CA7
:10385000990B801791074CF19E014091B80260913D
:10386000B7028091B6020E94B1110F5F1F4F2396DD
:103870000131110509F70E94141B80911C019091E0
:103880008002980F9093800220911D01280F2093B1
:103890001D01121614F490311CF0819580931C01C7
:1038A000DF91CF911F910F910895198218821A828A
:1038B000DCCFBF92CF92DF92EF92FF920F931F93D4
:1038C000CF93DF93FC018281DD24DA9480FD02C076
:1038D000DD24D39402E812E0D0E0C0E021E1B22E72
:1038E000F80111821082128294E0E92EF12CC12C91
:1038F00080917F028C0D82310CF43DC06B2D0E94B3
:103900008A31892F082E000C990B8C179D0791F492
:103910008091B8028E9DA0018F9D500D1124559568
:1039200047955595479598016091B7028091B602E9
:103930000E94B111CD0CF1E0EF1AF108C9F6219601
:103940000D5F1F4FC131D10559F60E94141B8091A4
:103950007F0291E0D91215C0811111C080E18093DE
:103960007F02DF91CF911F910F91FF90EF90DF9039
:10397000CF90BF90089587FFC5CF8F5EC3CF815092
:10398000EECF90E00196BE010E949831E8CFEF9211
:10399000FF921F93CF93DF93EC0182E8E82E82E041
:1039A000F82E10E08C8197014091B8026091B70227
:1039B000810F0E94B111115F83E0E80EF11C1F3FDF
:1039C00089F70E94141B9A818C8190FF08C08F5F39
:1039D0008C83DF91CF911F91FF90EF9008958150DC
:1039E000F7CF9091B50290FF0CC0E2E8F2E081833E
:1039F00060834283339692E0E53BF907C1F70C946C
:103A0000141B08950F931F93CF93DF9300D00F9251
:103A1000CDB7DEB78C018091810281110AC09E0171
:103A20002F5F3F4F4FEF6FEF0E94B1118A8180935C
:103A30008102F8016481613069F08091810240E087
:103A4000662361F040E0623011F44091810280E031
:103A500060E004C06091810240E080E00E94F11CBF
:103A6000F801848190E0019663E070E00E94983153
:103A700084830F900F900F90DF91CF911F910F9142
:103A80000895CF93DF9300D00F92CDB7DEB790911A
:103A9000B50290FF0AC09E012F5F3F4F0E94B111F7
:103AA0004B8169818A810E94F11C0F900F900F90C9
:103AB000DF91CF910895CF93DF93EC01E5EBF2E036
:103AC000438162818C810E94411D8C818F5F8C8338
:103AD000DF91CF910895CF93DF93EC01EC81F0E07B
:103AE000E05EF84E4491E5EBF2E0628181810E9454
:103AF000411D8C818F5F8C83DF91CF9108951F933F
:103B0000CF93DF93182FEB010E941A168FE99FE0E5
:103B10000197F1F700C000002197C1F7812FDF91D5
:103B2000CF911F910C94E115CF92DF92EF92FF920B
:103B30006B017C010E94A211B701A60188E090E010
:103B4000FF90EF90DF90CF900C9436355F926F929C
:103B50007F928F929F92AF92BF92CF92DF92EF921D
:103B6000FF920F931F93CF93DF9300D00F92CDB7A7
:103B7000DEB7182F762E042F622E9091B50290FF9B
:103B800029C0E92FE695AE2FB0E0AF57BE4F8C911C
:103B900080937D029E7F923081F59E012F5F3F4F83
:103BA000812F0E94B1114B8169818A810E94F11C91
:103BB0001093B6027092B7020093B802662051F0DB
:103BC0006091B5027091B6028091B7029091B802EF
:103BD0000E94941D0F900F900F90DF91CF911F9135
:103BE0000F91FF90EF90DF90CF90BF90AF909F909C
:103BF0008F907F906F905F900895823019F40091BC
:103C0000B802D6CF863019F41091B602D1CF8930E0
:103C1000D9F3893169F6E9518E2F8170582EE695D6
:103C2000F0E0E55EF84EA590B490BB2482E8E82E63
:103C300082E0F82ED12CC12C91E1892E912CC60165
:103C4000B4010E946A31812F511013C0860F970171
:103C5000402F672D0E94B111CA0CDB1C83E0E80ED7
:103C6000F11C85EBE81682E0F80649F70E94141B68
:103C70009FCF861BECCFE5EBF2E0438128E0421BAF
:103C800008F440E021E0628181810C94A61DE5EBFF
:103C9000F2E0438128E0420F08F44FEF21E0628117
:103CA00081810C94A61DE5EBF2E0628128E0621BA5
:103CB00008F460E021E0438181810C94A61DE5EBCE
:103CC000F2E0628128E0620F08F46FEF21E04381A7
:103CD00081810C94A61DE5EBF2E0818121E0438116
:103CE000628188500C94A61DE5EBF2E0818121E011
:103CF00043816281885F0C94A61D8091B90288235C
:103D000019F081508093B9026091B5027091B602AA
:103D10008091B7029091B8020C94941D8091B902E1
:103D2000833018F48F5F8093B9026091B50270916F
:103D3000B6028091B7029091B8020C94941DE5EB05
:103D4000F2E083E0808311828FEF82838383148289
:103D500060817181828193810C94941DCF9384E062
:103D600090E00E941035C82F82E290E00E9410354A
:103D7000982F8C2FCF91089569EE7EEF90E080E030
:103D80000E94423560E082E090E00E94243560E0CD
:103D900083E090E00E9424351092130210921402E6
:103DA000109215021092160260E084E090E00E94EA
:103DB000243560E082E290E00E94243560E085E0F6
:103DC00090E00E94243560E086E090E00E94243577
:103DD0006FEF87E090E00E94243540E050E0BA01A8
:103DE00088E090E00E94363560E08DE090E00E942F
:103DF000243540E050E0BA0188E190E00E94363579
:103E000060E087E190E00E94243540E050E0BA0194
:103E10008CE190E00E94363570E060E080E290E056
:103E20000E94423540E050E0BA0188E190E00E94F3
:103E3000363540E050E0BA018FE090E00E94363520
:103E400040E050E0BA0183E190E00C943635CF9326
:103E5000C0912102C2FB992790F9981781F080FB4D
:103E6000C2F9C09321026091200284E090E00E9498
:103E700024356C2F82E290E0CF910C942435CF91C1
:103E800008951F920F920FB60F9211242F933F9314
:103E90004F935F936F937F938F939F93AF93BF9352
:103EA000CF93DF93EF93FF93D091E900DF70809180
:103EB000EC00C82FC17080FDC0E81092E90080912D
:103EC000F000877F8093F00078940E942917109269
:103ED000E9008091F00088608093F000CD2BCF70D6
:103EE000C093E900FF91EF91DF91CF91BF91AF9126
:103EF0009F918F917F916F915F914F913F912F9102
:103F00000F900FBE0F901F9018951F920F920FB633
:103F10000F9211242F933F934F935F936F937F934F
:103F20008F939F93AF93BF93EF93FF938091E100A3
:103F300082FF09C08091E20082FF05C08091E1000C
:103F40008B7F8093E1008091DA0080FF24C0809114
:103F5000D80080FF20C08091DA008E7F8093DA0045
:103F60008091D90080FF9BC080E189BD82E189BD3D
:103F700009B400FEFDCF81E08093DB028091CE0288
:103F8000811109C00E94B00F0E947B108091E20055
:103F900084608093E2008091E10080FF17C08091EF
:103FA000E20080FF13C08091E2008E7F8093E200E8
:103FB0008091E20080618093E2008091D80080626D
:103FC0008093D80019BC85E08093DB028091E100EA
:103FD00084FF29C08091E20084FF25C080E189BD73
:103FE00082E189BD89B5982F917080FFFBCF8091C8
:103FF000D8008F7D8093D8008091E1008F7E8093E0
:10400000E1008091E2008F7E8093E2008091E200E7
:1040100081608093E2008091DC02882309F445C02E
:1040200084E08093DB028091E10083FF27C08091D0
:10403000E20083FF23C08091E100877F8093E1004D
:1040400082E08093DB021092DC028091E1008E7F9F
:104050008093E1008091E2008E7F8093E200809166
:10406000E20080618093E20042E060E080E00E9434
:1040700049108091F00088608093F000FF91EF91EB
:10408000BF91AF919F918F917F916F915F914F9170
:104090003F912F910F900FBE0F901F90189519BC54
:1040A0001092DB021092CE0276CF8091E30087FD62
:1040B00093E09093DB02B7CF78941F921FB61F92C4
:1040C00011248F939F93AF93BF938091C7029091D8
:1040D000C802A091C902B091CA020196A11DB11DEA
:1040E0008093C7029093C802A093C902B093CA02FA
:1040F000BF91AF919F918F911F901FBE1F901895F8
:104100009C014FB7F8948091C7029091C802A0918A
:10411000C902B091CA024FBF821B930B08952FB7FB
:10412000F8948091C7029091C802A091C902B09101
:10413000CA022FBF08950F931F93CF93DF93C62F0B
:10414000D42F022FFC0182818823A1F06093E70223
:104150000E948F209093E6028093E502C77081E071
:1041600001C0880FCA95EAF7DF91CF911F910F9197
:104170000C94D7158091E702681337C08091E5024F
:104180009091E6020E948020883C910570F510E233
:104190001D0FCD17B9F080E28C0F883040F4C77046
:1041A00081E001C0880FCA95EAF70E94CC1518304B
:1041B00048F481E09D2F977001C0880F9A95EAF727
:1041C0000E94D7156AE070E0802F0E947F1D183092
:1041D00098F4D77081E001C0880FDA95EAF7DF9193
:1041E000CF911F910F910C94CC15C77081E001C045
:1041F000880FCA95EAF7F3CFDF91CF911F910F9106
:1042000008956091B502669570E04BE050E081E161
:1042100091E00E946432892B19F481E080937E0240
:104220000E948F2090937802809377020895909156
:10423000B50290FF36C09170811129C092609093B1
:10424000B502662351F06091B5027091B60280917B
:10425000B7029091B8020E94941D6091B5026695D4
:1042600070E04BE050E081E191E00E946432892BE4
:10427000A9F010927E0281E080937A0220E04091C2
:10428000B8026091B7028091B6020C94A61D8532E7
:1042900010F09864D4CF880F982BD1CF0E940121C1
:1042A000EACF08958091B5028695815009F484E2A1
:1042B00061E00C9417218091B50286958F5F85325D
:1042C00008F081E061E00C9417219091B50290FF15
:1042D00007C09695981720F0961710F40C945B2160
:1042E00061E00C9417218F929F92AF92BF92CF9270
:1042F000DF92EF92FF920F931F93CF93DF93CDB78F
:10430000DEB728970FB6F894DEBF0FBECDBF8E0183
:104310000F5F1F4F88E0F80111928A95E9F78AE54F
:10432000A82E81E0B82EF12CE12CCC24C394D12C02
:10433000F50181915F018F3F09F449C0F894E82F9E
:10434000E295EF70F0E021A18F70A60102C0440F4A
:10435000551F8A95E2F7CA01922F982B91A392A13B
:104360008095892382A3789400C0E2E6F1E030E0F2
:1043700020E0912C41914F3F09F465C0A42FA295F4
:10438000AF70B0E090968C9190E04F7002C0959520
:1043900087954A95E2F780FD56C08C2D022E01C00C
:1043A000880F0A94EAF7982A2F5F3F4F273031058C
:1043B00009F7F501319780818F3F11F00E94491272
:1043C00050EA5A95F1F7F801EE0DFF1D90828FEF3C
:1043D000E81AF80AE8E0EE16F10409F0A9CF48E07F
:1043E00050E0B80182E292E00E947132FF24F3941F
:1043F000009709F4F12C892B41F188E0F801A2E241
:10440000B2E001900D928A95E1F781E08093190264
:104410000E948F20909318028093170280911702B8
:10442000909118020E948020059798F0E2E2F2E055
:10443000ADE2B2E081918D9322E0EA32F207D1F74A
:104440001092190206C080E0AECF8091190281114E
:10445000E5CF80911A0290911B020E948020893E34
:10446000934060F160914002062F10E066277727A5
:10447000601B710B072E000C880B990B0E940D36E8
:1044800027EA39E747E45DE30E94DA364B015C0135
:10449000B801110F880B990B0E940D369B01AC01DE
:1044A000C501B4010E9459350E94DC356093400279
:1044B0000E948F2090931B0280931A028F2D2896C2
:1044C0000FB6F894DEBF0FBECDBFDF91CF911F9125
:1044D0000F91FF90EF90DF90CF90BF90AF909F90A3
:1044E0008F9008954F925F926F927F928F929F92DA
:1044F000AF92BF92CF92DF92EF92FF920F931F93F2
:10450000CF93DF9300D000D00F92CDB7DEB77C0100
:10451000FC0183819481892B39F01081D180812F16
:104520008D218F3F09F045C50F900F900F900F9090
:104530000F90DF91CF911F910F91FF90EF90DF903F
:10454000CF90BF90AF909F908F907F906F905F9033
:104550004F9008950E945D14082F682F89819A81D9
:104560000E94F714E12FF0E027E0D29EE00DF11D4C
:10457000112438E3039FE00DF11D1124EE0FFF1FFE
:10458000E457FB4E05911491F7018281882309F4C9
:1045900063C0C80190568115F0E29F0750F0905E0D
:1045A000811520E1920728F0915C81159F4108F068
:1045B00091C0C80199279C0124503109243231054A
:1045C00020F08B970E9708F047C080911A029091C7
:1045D0001B020097D9F10E9480209C0150E040E02E
:1045E00060E67AEE80E090E00E94CE31CA01B90127
:1045F00025E030E040E050E00E94CE31C090400223
:104600002F3F310519F010F02FEF30E0D12C2C198D
:104610003D09B90190E080E00E940B3627EA39E7B6
:1046200047E45DE30E94DA360E94C5354B015C0128
:10463000B601DD0C880B990B0E940D36A501940183
:104640000E9459350E94DC35609340020E948F2001
:1046500090931B0280931A02043F8CE5180709F41B
:10466000A1C008F040C0093DECE51E0709F496C062
:104670000A3DFCE51F0709F4A1C0083D2CE512071F
:1046800009F03FC026E241EE61EEC7010E949B2087
:1046900080910E02877009F447CFF7018281882349
:1046A00009F442CF82E00F900F900F900F900F907F
:1046B000DF91CF911F910F91FF90EF90DF90CF90FE
:1046C000BF90AF909F908F907F906F905F904F9032
:1046D0000C94851590E080E00F3F110511F008F073
:1046E0006ACFC80168CF063F3CE5130709F462C0F2
:1046F00008F45CC027E245EE66EE073F9CE519072B
:1047000021F2F7018281882309F464C41092E70240
:104710000430FDE51F0708F054C00B3F2CE51207DD
:1047200030F4C80182509C45449708F04FC00E9465
:10473000AE1E909321028093200200318CE5180771
:1047400009F417C108F093C00830ECE51E0709F41E
:10475000FEC008F065C004302CE5120709F4E9C07A
:1047600008F04BC002308CE5180709F4DCC08091DA
:104770002002826003301C4509F4D8C060912002F9
:104780001091210284E090E00E942435612F82E2A2
:1047900090E00E9424350E941E177ACF27E245EE52
:1047A00065EE73CF26E241EE60EE6FCF27E245EE75
:1047B00064EE6BCF26E241EE62EE67CF28E241E085
:1047C000EFCF02363DE5130709F4B1CF8091110216
:1047D0000631ECE51E0709F014C48A7A91E009F469
:1047E00090E09093B20169E2811165E388EA91E07B
:1047F0000E944B110E9426144BCF809120028061B1
:104800000630ECE51E0709F491C080912002886013
:1048100007301C4508F48AC080912002806286C05F
:10482000809120028D7F0C302CE5120709F47EC0A8
:1048300058F40A308CE5180709F493C008F48BC0CB
:10484000809120028E7F72C080912002877F0E307F
:10485000ECE51E0709F46AC0809120028B7F0F30BF
:104860001C4508F463C0809120028F7E5FC00D3F1D
:104870002CE5120709F479C068F504318CE51807B6
:1048800009F48BC080F40231ECE51E0709F475C011
:10489000809120028F7B03311C4508F447C0809132
:1048A0002002837F43C00B3F2CE5120709F445C06B
:1048B00008F049C005311C4509F060CF8091200205
:1048C00082FB992790F921E0922790FB82F990FBD7
:1048D00083F92CC001309DE5190709F454C088F410
:1048E0008091210283600F3FFCE51F0749F1809111
:1048F00021028D7F01151D4518F1809121028C7FC9
:104900001FC003303DE5130709F456C008F44EC03C
:1049100002361D4509F032CF90912002892F8F7EFB
:1049200094FF806103C08091200281608093200207
:1049300025CF809120028460F9CF8091210281608F
:10494000809321021BCF809121028260F9CF809158
:1049500020028064EBCF0E941E17809120028068A5
:10496000E5CF809120028C60E1CF809121028E7F83
:10497000E7CF809120028F7DD9CF0E941E178091B2
:1049800020028F77D3CF80912102982F909591703C
:104990008E7F892B90FB81F9D3CF0E941E179091B7
:1049A0002002892F97FB87F98058C0CF61E08EE005
:1049B00090E00E942435E2CE60E0F9CF85E313C396
:1049C0008091B50280FF1BC08E7F8093B5026091FD
:1049D000B5027091B6028091B7029091B8020E9420
:1049E000941D10927E02FFEF20E732E0F15020404C
:1049F0003040E1F700C000000E94141B49CE8160E6
:104A00008093B50261E086950E94172141CE42E570
:104A100051E26BE571E20E949D113ACE4BE551E205
:104A200062E571E2F8CF44E75EE16BE67EE1F3CF49
:104A300043E55EE16FE57EE1EECF4BE35EE167E4E7
:104A40007EE1E9CF47E45EE16BE37EE1E4CF4EE84F
:104A50005EE16DE77EE1DFCF61E081E0D5CF65E02B
:104A600082E00E94652114CE68E086E0FACF64E11E
:104A70008FE0F7CF67E185E1F4CF62E289E1F1CF22
:104A800061E083E2C1CF0C352DE5120701F10D3550
:104A90001D4509F0E1C28091210282FB882780F93F
:104AA00091E089270E94271FD7C20E941E178FEF0F
:104AB00094E3ECE081509040E040E1F700C000005A
:104AC0000E94F01A0E94BC1EE3CD81E0EBCF80E093
:104AD000E9CF812F902F0E94CF14D82ECEC2212F44
:104AE0002F70A22E107F19F0A29420EFA222DD20B9
:104AF000C9F0AA2069F080E2800F883010F08110A0
:104B00000BC080911102A82AA09211020E942614C3
:104B1000802F0E941A1618C080911002A82AA09215
:104B20001002F4CF802F0E94E115AA2069F0A09412
:104B3000005E083010F0811045C080911102A8225B
:104B4000A09211020E942614EB2DE850FF0B34971F
:104B500010F40E949111CC20A9F080910E0280FDEA
:104B600011C0F70112828595859585950E94A11542
:104B7000C7010E94722280910E02859585958595C8
:104B80000E94621585E0F701DE01119601900D92F9
:104B90008A95E1F789819A810E94CF149A81E981EF
:104BA000F0E027E0929FE00DF11D112438E3839F90
:104BB000E00DF11D1124EE0FFF1FE457FB4E859110
:104BC0009491B2CC80911002A822A0921002BACF88
:104BD000312F3F70932E107F103219F0929490EF86
:104BE0009922882071F081E0881681F1DD20D9F1C9
:104BF000AA2091F1F701858180FF8ACF8F7085838C
:104C00002BC0DD20B1F090911202892D892BA110CB
:104C100003C00E94D71598CFE1E0AE12FACF2091E1
:104C2000210222FD91CF981709F48ECF80931202B2
:104C30008BCFA11006C00E942014892D0E94CC1594
:104C400083CFF1E0AF1609F47FCFF5CFDD2031F04F
:104C500025E02A1508F478CF892DDBCF34E03A150A
:104C600008F472CFEACFAA2041F3F9E38F120DC006
:104C70002FEF37EE83E0215030408040E1F700C055
:104C80000000802F0E94E1155FCFEFE3FCE9319730
:104C9000F1F7F5CF812F86958695837061F081308D
:104CA00009F052CFC8019370D11002C090E080E0AB
:104CB0000E94651149CFC8019370D11002C090E0E5
:104CC00080E00E947B1140CF812F837009F066C085
:104CD000D1103ACF802F829586958770880F880FE4
:104CE000602F6F70462E512C712C612C082E04C041
:104CF000440C551C661C771C0A94D2F740E050E027
:104D0000BA0104FF0FC04FE050E060E070E004C063
:104D1000440F551F661F771F8A95D2F7409550950F
:104D200060957095812F869586958370823019F1F4
:104D3000D8F40091130210911402209115023091C1
:104D40001602813069F04429552966297729CB015B
:104D5000BA0160237123822393230E94C215F4CEEB
:104D6000402A512A622A732ACB01BA016429752983
:104D700086299729F2CF4429552966297729009158
:104D80001302109114022091150230911602CB01EA
:104D9000BA016027712782279327DFCF8695DD2010
:104DA00011F0812F8170882309F4CECE802F829557
:104DB00086958770880F880F602F6F70462E512C54
:104DC000712C612C082E04C0440C551C661C771CE9
:104DD0000A94D2F740E050E0BA0104FF0FC04FE060
:104DE00050E060E070E004C0440F551F661F771F5D
:104DF0008A95D2F74095509560957095812F86954C
:104E000086958370823019F1D8F400911C021091BC
:104E10001D0220911E0230911F02813069F0442949
:104E2000552966297729CB01BA0160237123822392
:104E300093230E94581588CE402A512A622A732A49
:104E4000CB01BA016429752986299729F2CF442913
:104E500055296629772900911C0210911D02209185
:104E60001E0230911F02CB01BA01602771278227F1
:104E70009327DFCF1F70DD2029F0812F0E94A1151D
:104E8000802FC7CE802F0E94CC15812F0E946215E3
:104E90005BCE802FF2EF8F1609F454C0F81578F02E
:104EA00020EF821639F131EF831609F443C0DD207B
:104EB00009F46BC0A1102CCE812F8F7140C093EFED
:104EC000891609F444C0E4EF8E12F1CFDD2009F415
:104ED00051C01F71812F0E94A1158091210282FD76
:104EE00007C038E0139FC0011124836080930E0235
:104EF000812F25C0DD20C9F0F4E0FA1508F424CE96
:104F00001F7161E070E080E090E004C0660F771FE1
:104F1000881F991F1A95D2F700911C0210911D024B
:104F200020911E0230911F02A0CF25E02A1508F41F
:104F30000BCEE6CF812F8F71DD2009F4A7CF0E9421
:104F4000A11502CE812F8F71DD20C9F39FCF60E0C4
:104F500070E0CB01DD2009F46CCF1F7161E070E0DF
:104F600080E090E004C0660F771F881F991F1A9594
:104F7000D2F75FCF81E00E94851581E08A1508F0A5
:104F8000E3CD82E00E948515DFCDAA2079F0893338
:104F900041F49FEFE7EEF3E09150E040F040E1F79D
:104FA0006ECE8FE39CE90197F1F769CE812F8F7167
:104FB0006DCF85E0DE01119601900D928A95E1F7A3
:104FC000F701228189819A812111C4CA0E94CF14DC
:104FD000082FC8CA06311C4509F03EC08091B201B5
:104FE0008111ECCC89E2EAEAF1E020EB31E0919129
:104FF000891303C0DF0111971C922E173F07B9F7E1
:10500000F9CB82720D3C2CE5120709F420CD08F093
:10501000AAC0073C9CE5190709F405CD08F07FC03C
:10502000043CFCE51F0709F4F2CC08F069C0033C1E
:105030003CE5130709F4C4CC0B358DE5180709F4DA
:1050400044CD08F020CD0115ECE51E0709F42DCD67
:105050000F3D1C4509F436CDF70182811081018195
:10506000882309F436CD812F902F0E945D14D82E0D
:10507000682F812F902F0E94F714E12FF0E027E096
:10508000029FE00DF11D112438E3D39EE00DF11DC8
:105090001124EE0FFF1FE457FB4E859194910E945F
:1050A000A3128C01882EF701D280A580A2945FE024
:1050B000A52280910E028770A1F0CD2CDD2091F009
:1050C000812F807F803421F080E2800F883048F08B
:1050D00082E00E94851580910E028770CC24C394D3
:1050E0008111C12CB12EB2943FE0B322FBE0FB153D
:1050F00008F42ACDEB2DF0E0EF59F84C0C94ED318B
:10510000053C9CE5190709F489CC4BE65EE164E7B0
:105110007EE1063CECE51E0709F47DCC8DCF0A3C10
:10512000FCE51F0709F489CC78F4083C3CE513073B
:1051300009F47ECC4FE55EE163E57EE1093C9CE548
:10514000190709F468CC78CF0B3CECE51E0709F48D
:1051500079CC4DE75EE16EE87EE10C3CFCE51F0793
:1051600009F459CC69CF023D2CE5120709F47FCC34
:10517000A0F40F3C8CE5180709F471CC08F46CCC52
:10518000003DECE51E0709F46FCC6EE089E0013DBF
:10519000FCE51F0709F465CC4FCF053D2CE5120750
:1051A00009F46BCC68F4033D8CE5180709F462CC74
:1051B00061E088E1043D9CE5190709F425CC3CCF6A
:1051C000063DECE51E0709F45BCC0E35FDE51F0737
:1051D00009F45ECA31CF1F93CF93DF938091DB0137
:1051E000807FA9F48091D801882389F080910D02F5
:1051F000D091DC016091D6017091D701A091D901C5
:10520000B091DA01C62FC72316E0D81304C0DF918E
:10521000CF911F91089590E0109711F0CF3F19F4AE
:1052200001968770F2CF189F9001199F300D1124BD
:10523000F901E352FE4F41814713F2CF40814613FB
:10524000EFCF42814111ECCF438154814A1B5B0B6C
:10525000483C510528F78091DB018F708061809375
:10526000DB01F901EE51FE4F80818F7080618083F8
:1052700086ED91E00E947222DF91CF911F910C94F4
:105280005314AF92BF92CF92DF92EF92FF920F939F
:105290001F93CF93DF93CDB7DEB761970FB6F89426
:1052A000DEBF0FBECDBF8C0185E0F801DE011D968B
:1052B00001900D928A95E1F7F801E28086EDA82E23
:1052C00081E0B82E6091D9017091DA016115710504
:1052D00009F432C19091D6014091D701892F8423DE
:1052E0008F3F09F429C120813181C380D480F0909F
:1052F000D801F601E61BF70BFF2009F4E8C0809106
:10530000DB01582F507FE83CF10508F0ABC051118C
:1053100077C0FE2C431321C092131FC0E1101DC0A3
:105320008F7080618093DB01C5010E9472228091A1
:10533000DB01F80185838F2D61960FB6F894DEBFEF
:105340000FBECDBFDF91CF911F910F91FF90EF90D6
:10535000DF90CF90BF90AF900895CD2829F0822F95
:1053600083238F3F09F003C180E0F82FF170DF2E17
:1053700080FF3CC080910D024091DC0156E0841317
:1053800015C02D873E878D859E850E94B414292FD8
:1053900022952F702230F0F0243018F59F70F1F034
:1053A000F8019581907FD1F4D12C1EC090E0589FD8
:1053B000F001599FF00D1124E352FE4F6181361325
:1053C00006C06081261303C06281E6120FC00196F9
:1053D0008770D5CF9F7011F0882331F3805E8830BD
:1053E00018F3C8010E947222FD2CA5CFEE2009F40B
:1053F000A2CF8091DB0181608093DB01F12C9BCFF8
:10540000431306C0921304C0F801EE2009F479C0DA
:10541000C8010E942315882309F1EE20F9F080913C
:10542000DB01803270F02091D6013091D7013887AE
:105430002F831986DB86CA868C87CE0107960E9449
:10544000722286E0F801A6EDB1E001900D928A95F6
:10545000E1F70E94EB28FF24F3946DCFC8010E946E
:105460007222F9CF51110AC086ED91E00E9472229A
:1054700086E0F50111928A95E9F7C0CF43130FC07A
:1054800092130DC0E1100BC0F8018583C8010E9482
:10549000722286E0F50111928A95E9F74CCFC80196
:1054A0000E9423158823D1F2EE20C1F28091DB0106
:1054B000803238F22091D6013091D7013A83298386
:1054C0001B82DD82CC828E83CE010196B8CFE83C70
:1054D000F105F8F6FE2CEE2009F243131FC09213DB
:1054E0001DC08091DB0180FD10C0982F907F69F076
:1054F000F8018583903F31F0982F907F905F8F70F7
:10550000892B8583C8010E94722286E0F801A6EDEE
:10551000B1E001900D928A95E1F70DCFC8010E948C
:10552000231581118ECF8091DB0181608093DB0197
:10553000C8010E947222FFCEEE2009F48FCFC8016D
:105540000E942315F82E882309F488CF86E0F801FD
:10555000A6EDB1E001900D928A95E1F78091D60118
:105560009091D7010E94B4140E94EB28E4CE81E010
:105570008E25FBCE1F93CF93DF93CDB7DEB7679712
:105580000FB6F894DEBF0FBECDBF4B8B5C8B6D8B1F
:105590007E8B8F8B6111109210021A8A198A85E016
:1055A000FE017396DE011D9601900D928A95E1F73A
:1055B00086E0FE013D96DE01179601900D928A95D8
:1055C000E1F7CE0107960E944129882389F016E071
:1055D00080910D029091DC01891349C067960FB646
:1055E000F894DEBF0FBECDBFDF91CF911F9108951C
:1055F00086E0FE013796DE01119601900D928A95A4
:10560000E1F78A859B85892B11F38F819885892302
:105610008F3FE9F22091DC0130E0C90101968770EB
:10562000992740910D024817190671F40E941E1720
:105630001092DC0110920D0286E0E6EDF1E0DF0150
:105640001D928A95E9F7C3CF96E0929FD001939F70
:10565000B00D1124A352BE4FFE01319601900D9260
:105660009A95E1F78093DC010E945314B0CF819F9B
:10567000C001112483529E4F0E944129882309F4BE
:10568000ADCF80910D0290E00196877099278093AD
:105690000D029ECF1F921FB61F9211248F939F93CE
:1056A000AF93BF938091C602811113C08091C7024E
:1056B0009091C802A091C902B091CA024196A11D61
:1056C000B11D8093C7029093C802A093C902B09302
:1056D000CA02BF91AF919F918F911F901FBE1F90E3
:1056E0001895CDB7DEB72C970FB6F894DEBF0FBE76
:1056F000CDBF84B7877F84BF0FB6F894A8958091FB
:105700006000886180936000109260000FBE80E8A6
:1057100090E00FB6F89480936100909361000FBE03
:1057200085B7806885BF85B7806885BF87E492E1CB
:105730009093A7018093A6010E94B00F0E947B1056
:105740008091E20084608093E20078948091DB0293
:105750008823A1F01091E9001F709091EC00892F2F
:10576000817090FD80E8182B1092E9008091E8008C
:1057700083FD0E9429171F701093E90082E084BD09
:1057800093E095BD9AEF97BD80936E000AE511E016
:1057900042E6E42E41E0F42ED8018D918D018F3F39
:1057A00011F00E944912E016F106B1F702E611E08D
:1057B00039E6E32E31E0F32EF80181918F018F3F1E
:1057C00011F00E944912E016F106B1F7E2E2F2E0B0
:1057D0008AE292E0ADE2B2E011921D928E179F072D
:1057E000D9F790E080E00E941E35893E9E4F11F06F
:1057F0000E94BC1E82E090E00E94103580936E02F1
:105800000E94AE1E90932102809320020E94732179
:105810002FEF36E781E0215030408040E1F700C0B3
:1058200000000E94732180912D0280FF08C06FEF5D
:105830007FEF90E080E00E9442350E94F01A83E002
:1058400090E00E941035682F70E090E080E00E94A8
:10585000C21582E080936B0280E88093E8020E9488
:1058600063306DE070E08FEE95E10E94AB16892BFE
:10587000E9F580916B0263E070E081FD02C28CEE7D
:1058800095E10E94AB16892B89F56DE070E08CEDF7
:1058900095E10E94AB16892B49F50E943F11605497
:1058A0007B428E4F9F4F6093BA027093BB028093EE
:1058B000BC029093BD02E1EFF2E080E092E0DF01F4
:1058C0009C011D9221503040E1F7F093F204E093E7
:1058D000F1048FEF9FEF9093F0028093EF0281E04D
:1058E0008093BF028093BE0210926C0280912A02C4
:1058F000811136C090E080E00E941E35893E9E4FA7
:1059000021F00E94BC1E0E949F1E88E090E00E9431
:1059100018356093B5027093B6028093B7029093E6
:10592000B8026E7F71F40E949F1E88E090E00E9492
:1059300018356093B5027093B6028093B7029093C6
:10594000B8020E94A21110927E028091B50280FFDF
:1059500004C060E086950E94172181E080932A02AE
:105960002098289A55985D9A83B181704D998CC181
:1059700090E0892B8093370280E091E09093C302FE
:105980008093C2028091DB0200E112E1853009F4CC
:10599000D3C10E947321C82E81110E943F11EFE6EE
:1059A000F2E0ADE2B2E010E000E0302F8D91919195
:1059B000981709F4E1C1292F282790E0FF24F394D8
:1059C000422F4F2109F4D3C199833A838F2191E06B
:1059D00009F490E09B830E948F208160782F9D8343
:1059E0008C8349815A816B818D810E94BA2AF8018A
:1059F000E159FD4F8081F826F08280917E02882354
:105A0000D1F180917D02E091B502E695E81BE0932B
:105A10007902823009F0C7C1F0E0E65FF94EE49107
:105A20000E2F10E02BE6E22E2DE1F22E80917A026D
:105A3000882361F010927A020E948F20909378025E
:105A40008093770210927C0210927B020E948F203A
:105A5000E0917702F09178028E1B9F0B8F3F9F475A
:105A600050F4E00FF11FF0937802E093770287E79C
:105A700092E0F7010995E0913702EE0FEE0FE09307
:105A8000370283B180FB662460F84D99E6C180E05F
:105A90008629E82BE0933702EF70F0E0E759FE4FDC
:105AA000808190913602890F80933602D12C843008
:105AB00064F0809135028F5F809335026AE070E078
:105AC00089EA0E947F1DDD24D394809136028D3FA8
:105AD00064F4809135028150809335026AE070E071
